:020000040000FA
:100000000C9462000C948A000C948A000C948A0070
:100010000C948A000C948A000C948A000C948A0038
:100020000C948A000C948A000C948A000C948A0028
:100030000C948A000C948A000C948A000C948A0018
:100040000C9431050C948A000C94FF040C94D90490
:100050000C948A000C948A000C948A000C948A00F8
:100060000C947B050C948A000000000025002800F9
:100070002B0000000000240027002A0000000000E0
:1000800023002600290004040404040404040202DA
:100090000202020203030303030301020408102007
:1000A0004080010204081020010204081020000012
:1000B0000008000201000003040700000000000027
:1000C00000009A0611241FBECFEFD8E0DEBFCDBFDF
:1000D00011E0A0E0B1E0E6E1F3E102C005900D928D
:1000E000A435B107D9F722E0A4E5B1E001C01D9223
:1000F000AC3CB207E1F710E0C2E6D0E004C02197C3
:10010000FE010E948309C136D107C9F70E94D306B8
:100110000C9489090C9400009091D2018091D10136
:100120002FEF3FEF981748F4E92FF0E0EF54FE4F20
:10013000208130E09F5F9093D201C9010895909192
:10014000D2018091D1012FEF3FEF981748F4E92FAA
:10015000F0E0EF54FE4F208130E09F5F9093D2019A
:10016000C901089508950895AF92BF92CF92DF928A
:10017000EF92FF920F931F93CF93DF936C017B015C
:100180008B01040F151FEB015E01AE18BF08C017ED
:10019000D10759F06991D601ED91FC910190F08160
:1001A000E02DC6010995892B79F7C501DF91CF9123
:1001B0001F910F91FF90EF90DF90CF90BF90AF9085
:1001C0000895FC01538D448D252F30E0842F90E05D
:1001D000821B930B541710F0CF9608950197089542
:1001E000FC01918D828D981761F0A28DAE0FBF2F0B
:1001F000B11D5D968C91928D9F5F9F73928F90E061
:1002000008958FEF9FEF0895FC01918D828D9817CF
:1002100031F0828DE80FF11D858D90E008958FEF0C
:100220009FEF0895FC01918D228D892F90E0805CD5
:100230009F4F821B91098F739927089583E292E063
:100240000E94120121E0892B09F420E0822F0895F9
:1002500080E090E0892B29F00E941E0181110C940E
:1002600000000895FC01A48DA80FB92FB11DA35A59
:10027000BF4F2C91848D90E001968F739927848FC6
:10028000A689B7892C93A089B1898C9183708064E9
:100290008C93938D848D981306C00288F389E02D8A
:1002A00080818F7D80830895EF92FF920F931F933B
:1002B000CF93DF93EC0181E0888F9B8D8C8D981319
:1002C0001AC0E889F989808185FF15C09FB7F89425
:1002D000EE89FF896083E889F98980818370806471
:1002E00080839FBF81E090E0DF91CF911F910F91BC
:1002F000FF90EF900895F62E0B8D10E00F5F1F4FCB
:100300000F731127E02E8C8D8E110CC00FB607FCD9
:10031000FACFE889F989808185FFF5CFCE010E9467
:100320003201F1CFEB8DEC0FFD2FF11DE35AFF4FA2
:10033000F0829FB7F8940B8FEA89FB8980818062F5
:10034000CFCFCF93DF93EC01888D8823B9F0AA89B2
:10035000BB89E889F9898C9185FD03C0808186FD80
:100360000DC00FB607FCF7CF8C9185FFF2CF8081CF
:1003700085FFEDCFCE010E943201E9CFDF91CF9111
:100380000895833081F028F4813099F08230A9F00B
:1003900008958730A9F08830C9F08430B1F4809195
:1003A00080008F7D03C0809180008F7780938000D4
:1003B000089584B58F7784BD089584B58F7DFBCF74
:1003C0008091B0008F778093B00008958091B00045
:1003D0008F7DF9CF1F93CF93DF93282F30E0F90162
:1003E000E255FF4F8491F901E656FF4FD491F90190
:1003F000EA57FF4FC491CC23A9F0162F81110E9418
:10040000C101EC2FF0E0EE0FFF1FE859FF4FA5915F
:10041000B4918FB7F894EC91111108C0D095DE23F8
:10042000DC938FBFDF91CF911F910895DE2BF8CF22
:100430003FB7F89480919D0190919E01A0919F01FA
:10044000B091A00126B5A89B05C02F3F19F00196D9
:10045000A11DB11D3FBFBA2FA92F982F8827BC011E
:10046000CD01620F711D811D911D42E0660F771F46
:10047000881F991F4A95D1F7089520917501260F7D
:100480003327331F21323105ECF42091F901FC01AF
:1004900090E080E0243069F082E00895A091750139
:1004A0002191AC014B5A5E4FA40FB52FB11D2C9377
:1004B0000196861798F380917501680F6093750116
:1004C00080E0089581E008951092F90181E0809321
:1004D000F8011092D30161E082E10E94EA0161E03B
:1004E00083E10E94EA01E9EBF0E080818E7F808366
:1004F00080818D7F808388E48093B80085E4809339
:10050000BC000895CF93DF9391E09093540188232A
:10051000B9F0C091B800D091BA008091BC008A7B3C
:100520008093BC0060E082E10E94EA0160E083E128
:100530000E94EA010E946402D093BA00C093B800FE
:10054000DF91CF9108958F929F92AF92BF92CF92F9
:10055000DF92EF92FF920F931F93CF93DF93D0918F
:100560002202D13208F0D7C0182FC09121020E9478
:1005700018026B017C018091F90181116BC082E04E
:100580008093F9011093F8018FEF8093F701109297
:10059000F601D093F501A1E0B2E0E5EDF1E080E0F5
:1005A000D81391C01092D4018091D401CC0FC82BE4
:1005B000C093D4018091D301813009F088C010929A
:1005C000D3010E9418026B017C018091D4018093B9
:1005D000BB008091FB019091FC01A091FD01B091C5
:1005E000FE01892B8A2B8B2BA1F00E94180200910F
:1005F000FB011091FC012091FD013091FE016C196D
:100600007D098E099F09061717072807390708F47F
:1006100042C08091BC0083FDD8CF85EC8093BC00A4
:100620000E9418026B017C018091F901823009F46B
:1006300050C08091F7018F3F09F46FC08091F7019E
:10064000803209F46CC08091F701803309F469C0ED
:1006500084E026C08091FB019091FC01A091FD01F6
:10066000B091FE01892B8A2B8B2B09F484CF0E9439
:1006700018028090FB019090FC01A090FD01B090C9
:10068000FE016C197D098E099F0986169706A8063A
:10069000B90608F070CF8091FA010E94820285E0CD
:1006A00010920002109222021092FF01DF91CF916E
:1006B0001F910F91FF90EF90DF90CF90BF90AF9080
:1006C0009F908F9008959D9191938F5F69CF85EE54
:1006D000A5CF8091FB019091FC01A091FD01B0910B
:1006E000FE01892B8A2B8B2B09F49ECF0E941802C6
:1006F0000091FB011091FC012091FD013091FE0160
:100700006C197D098E099F090617170728073907F5
:1007100008F08ACFC0CF81E0C3CF80E0C1CF82E0B4
:10072000BFCF83E0BDCF0895E091D2018091D10188
:10073000E81730F4F0E0EF54FE4F808190E0089528
:100740008FEF9FEF08958091D1019091D201891B85
:10075000990B0895CF92DF92EF92FF920F931F9320
:10076000CF93DF937C01CB018A012091FF012223EB
:1007700089F0EB016B01C40ED51ECC15DD0569F0C7
:100780006991D701ED91FC910190F081E02DC701B5
:100790000995F3CF642F0E943D02C801DF91CF91EC
:1007A0001F910F91FF90EF90DF90CF900895CF931E
:1007B000DF931F92CDB7DEB769832091FF0122231B
:1007C000F9F020912202203258F021E030E0FC01C3
:1007D0003383228390E080E00F90DF91CF910895E2
:1007E00080910002E82FF0E0EF5FFD4F9981908348
:1007F0008F5F809300028093220281E090E0ECCF33
:1008000061E0CE0101960E943D02F7CF90E080E0CA
:100810000895FC0101900020E9F73197AF01481BD2
:10082000590BBC0183E292E00C94B400CF93DF93A8
:100830000E940904EC0186E291E00E9409048C0FF9
:100840009D1FDF91CF9108958F929F92AF92BF929B
:10085000CF92DF92EF92FF920F931F93CF93DF938C
:10086000CDB7DEB7A1970FB6F894DEBF0FBECDBFF0
:100870006C01990FEE08FF08F7FE41C06DE283E2BC
:1008800092E00E9454018C0122273327A9012C19E0
:100890003D094E095F0919A2CE0181967C019AE0BB
:1008A000892E912CA12CB12CCA01B901A50194016A
:1008B0000E946109605DF70162937F012115310596
:1008C0004105510589F790E080E0309719F0CF019C
:1008D0000E940904800F911FA1960FB6F894DEBF05
:1008E0000FBECDBFDF91CF911F910F91FF90EF9081
:1008F000DF90CF90BF90AF909F908F900895A70109
:10090000960119A28E010F5D1F4F8AE0C82ED12CCF
:10091000E12CF12CCA01B901A70196010E946109DD
:10092000605DF80162938F01211531054105510584
:1009300089F790E080E0309779F2CF010E940904B6
:10094000CBCF85ED8093BC008091FB019091FC01A1
:10095000A091FD01B091FE010796A11DB11D23E0FC
:10096000B695A795979587952A95D1F72091BC00C4
:1009700024FD03C01092F90108954091FB015091AC
:10098000FC016091FD017091FE01452B462B472B28
:1009900069F30097A105B10541F025E32A95F1F728
:1009A00000000197A109B109E1CF8091FA010C94EF
:1009B00082021F920F920FB60F9211242F933F9332
:1009C0004F935F936F937F938F939F93AF93BF9357
:1009D000EF93FF9383E292E00E943201FF91EF9147
:1009E000BF91AF919F918F917F916F915F914F9147
:1009F0003F912F910F900FBE0F901F9018951F924F
:100A00000F920FB60F9211242F938F939F93EF9312
:100A1000FF93E0913302F09134028081E09139023A
:100A2000F0913A0282FD1BC0908180913C028F5F61
:100A30008F7320913D02821741F0E0913C02F0E07B
:100A4000ED5DFD4F958F80933C02FF91EF919F915B
:100A50008F912F910F900FBE0F901F90189580814E
:100A6000F4CF1F920F920FB60F9211242F933F9342
:100A70008F939F93AF93BF938091990190919A0127
:100A8000A0919B01B0919C013091980123E0230F2C
:100A90002D3758F50196A11DB11D20939801809323
:100AA000990190939A01A0939B01B0939C0180912E
:100AB0009D0190919E01A0919F01B091A00101968E
:100AC000A11DB11D80939D0190939E01A0939F0154
:100AD000B093A001BF91AF919F918F913F912F91C2
:100AE0000F900FBE0F901F90189526E8230F0296C7
:100AF000A11DB11DD2CF1F920F920FB60F921124DC
:100B00002F933F934F935F936F937F938F939F9315
:100B1000AF93BF93EF93FF938091B900887F8036A6
:100B200009F44AC0F0F5883209F4A7C018F58031FD
:100B300009F49BC0B8F4882309F4F9C0883009F49B
:100B400094C0FF91EF91BF91AF919F918F917F9151
:100B50006F915F914F913F912F910F900FBE0F902A
:100B60001F901895883109F488C0803251F780931E
:100B7000F70114C0803409F49DC040F48033B9F308
:100B80008833F9F68093F70185ECB0C0803509F41D
:100B900085C0883509F496C0883499F60E94A1046E
:100BA000D0CF883909F48CC038F5883729F050F453
:100BB000883611F0803729F683E08093F90110928E
:100BC000970157C0883809F47BC0803919F0803804
:100BD00009F0B7CF80919701803208F071C0E091A1
:100BE000970181E08E0F809397018091BB00F0E028
:100BF000E958FE4F80833DC0803B39F0E0F4803AF5
:100C000009F479C0883A09F09CCF84E08093F90117
:100C10001092760110927501E091A301F091A40168
:100C200009958091750181110FC081E08093750154
:100C30001092550109C0803C09F4A6CF883C09F404
:100C4000A3CF883B09F07DCFE091760181E08E0F44
:100C500080937601F0E0EB5AFE4F80818093BB00D9
:100C6000909176018091750129C08091D401809383
:100C7000BB0085EC8093BC0064CF9091F60180911D
:100C8000F501981758F5E091F60181E08E0F8093F9
:100C9000F601F0E0EB52FE4F8081E9CFE091F601E2
:100CA00081E08E0F8093F6018091BB00F0E0EB5263
:100CB000FE4F80839091F6018091F5019817C8F25C
:100CC00085E8D8CFE091F60181E08E0F8093F601A0
:100CD0008091BB00F0E0EB52FE4F80838091F801E1
:100CE00081115CCF81E08093D30184EA8093BC00C2
:100CF0001092F90126CF85EC8093BC001092F90187
:100D000080919701803230F4E0919701F0E0E9584A
:100D1000FE4F10826091970170E0E091A101F09187
:100D2000A20187E791E00995109297010ACF1092EE
:100D3000F70134CFE3E2F2E01382128288EE93E00F
:100D4000A0E0B0E084839583A683B78326E031E0FA
:100D50003183208325EC30E03587248724EC30E094
:100D60003787268720EC30E0318B208B21EC30E078
:100D7000338B228B22EC30E0358B248B26EC30E059
:100D8000378B268B118E128E138E148EE0ECF2E0D0
:100D90001382128284839583A683B78388E191E0CE
:100DA000918380830895CF93DF9300D000D01F926A
:100DB000CDB7DEB7789484B5826084BD84B5816098
:100DC00084BD85B5826085BD85B5816085BD809116
:100DD0006E00816080936E0010928100809181008E
:100DE0008260809381008091810081608093810086
:100DF000809180008160809380008091B100846048
:100E00008093B1008091B00081608093B0008091A8
:100E10007A00846080937A0080917A008260809367
:100E20007A0080917A00816080937A0080917A00C4
:100E3000806880937A001092C100E3EAF0E0249188
:100E4000EFE8F0E084918823E1F090E0880F991FAB
:100E5000FC01EE58FF4FA591B491FC01E859FF4FFA
:100E6000859194919D838C839FB7F8943C91822FB8
:100E7000809583238C93EC81FD818081282B2083B6
:100E80009FBF1092D2011092D101109200021092D5
:100E900022020E94640282EB90E09093A40180936E
:100EA000A30183EB90E09093A2018093A10181E0E4
:100EB0008093FF0188E6809321026BE680EC92E04C
:100EC0000E94D70360E080EC92E00E94D70381E0AB
:100ED0000E94A302E0913302F091340282E0808309
:100EE000E0912F02F09130021082E0913102F091F6
:100EF000320283E3808310923B02E0913702F0914B
:100F0000380286E08083E0913502F09136028081DC
:100F100080618083E0913502F091360280818860A3
:100F20008083E0913502F091360280818068808371
:100F3000E0913502F091360280818F7D808311E04F
:100F400008E6E7EBF0E08491E3EAF0E0F491FB835C
:100F5000EFE8F0E0F491FC83FF2309F4A2C08111D3
:100F60000E94C1012C81E22FF0E0EE0FFF1FE45838
:100F7000FF4FA591B4918C913B81382391E080E0A3
:100F800009F490E09C838D83809100019091010190
:100F9000019709F089C08C819D81892B09F089C056
:100FA00089E291E00E9416041093FF010093210250
:100FB00010920002109222026BE380EC92E00E94F9
:100FC000D70380E00E94A3020E9418024B015C013B
:100FD0008091F90181118FC01093F9011093F801EC
:100FE000FFEFF093F7011092F6012DE02093F50149
:100FF0001093D4018091D401806D8093D4018091AD
:10100000D301813009F035C11092D3010E9418023A
:101010004B015C018091D4018093BB008091FB0166
:101020009091FC01A091FD01B091FE01892B8A2BCA
:101030008B2BA1F00E9418022091FB013091FC0142
:101040004091FD015091FE01681979098A099B09B7
:10105000261737074807590708F46EC08091BC006F
:1010600083FDD8CF35EC3093BC000E9418024B01B1
:101070005C018091F901813009F4FFC08091F60193
:101080008E3008F01CC18091F601A5EDB1E0E1EBD6
:10109000F1E090E0981709F454C02D9121939F5FDF
:1010A000F9CF1D821C8270CFEC81FD81EF2B09F4FA
:1010B0007BCF8091000190910101892B49F42C8113
:1010C0003D812130310521F485E491E00E94160430
:1010D0008C819D819093010180930001E0E0F0E01C
:1010E000EF2B09F42ECF0E941E01882309F429CF8B
:1010F0000E94000026CF8091FB019091FC01A091FD
:10110000FD01B091FE01892B8A2B8B2B09F460CF56
:101110000E9418022091FB013091FC014091FD01D9
:101120005091FE01681979098A099B09261737072A
:101130004807590708F04CCF8091FA010E948202BB
:1011400080E01092D2018093D1010E949F00B82EBE
:101150000E949F00E12C8E299B299093B0018093DF
:10116000AF010E949F00B82E0E949F00C12C8C29C5
:101170009B299093AE018093AD010E949F00B82EF1
:101180000E949F00612C86299B299093AC0180933B
:10119000AB010E949F000E949F000E949F00B82EFA
:1011A0000E949F00BA821982E981FA818E2B9F2BBF
:1011B0009093AA018093A9010E949F00B82E0E94DB
:1011C0009F00212C82299B299093A8018093A7013D
:1011D0000E949F00B82E0E949F00412C84299B29C9
:1011E0009093A6018093A50188E391E00E940904F1
:1011F0008EE391E00E9409048091AF019091B001CB
:101200000E9424048EE391E00E9409048091AD01C4
:101210009091AE010E9424048EE391E00E940904A3
:101220008091AB019091AC010E9424048EE391E087
:101230000E9409048091A9019091AA010E942404AE
:101240008EE391E00E9409048091A7019091A8018A
:101250000E9424048EE391E00E9409048091A5017C
:101260009091A6010E94240480E491E00E9416045B
:1012700020CF85EE8093BC00F8CE8091FB01909149
:10128000FC01A091FD01B091FE01892B8A2B8B2BD3
:1012900009F4EFCE0E9418022091FB013091FC016D
:1012A0004091FD015091FE01681979098A099B0955
:1012B000261737074807590708F0DBCE3DCF8EE0E9
:1012C000E4CEA1E21A2EAA1BBB1BFD010DC0AA1F72
:1012D000BB1FEE1FFF1FA217B307E407F50720F09F
:1012E000A21BB30BE40BF50B661F771F881F991F1A
:1012F0001A9469F760957095809590959B01AC0163
:10130000BD01CF010895EE0FFF1F0590F491E02D70
:101310000994F894FFCF0100000000005401B400CC
:10132000E100A1011201F000040100000000D70358
:10133000AA0306049303A3038C0094030D0A00532D
:1013400054415254494E472042415443480053545B
:1013500041525400200020454E4400434C4F534915
:0A1360004E4720424154434800006C
:107E0000112484B714BE81FFF0D085E080938100F7
:107E100082E08093C00088E18093C10086E0809377
:107E2000C20080E18093C4008EE0C9D0259A86E02C
:107E300020E33CEF91E0309385002093840096BBD3
:107E4000B09BFECF1D9AA8958150A9F7CC24DD24C4
:107E500088248394B5E0AB2EA1E19A2EF3E0BF2EE7
:107E6000A2D0813461F49FD0082FAFD0023811F036
:107E7000013811F484E001C083E08DD089C08234E0
:107E800011F484E103C0853419F485E0A6D080C0E4
:107E9000853579F488D0E82EFF2485D0082F10E0AE
:107EA000102F00270E291F29000F111F8ED06801E7
:107EB0006FC0863521F484E090D080E0DECF843638
:107EC00009F040C070D06FD0082F6DD080E0C81688
:107ED00080E7D80618F4F601B7BEE895C0E0D1E017
:107EE00062D089930C17E1F7F0E0CF16F0E7DF06D8
:107EF00018F0F601B7BEE89568D007B600FCFDCFD4
:107F0000A601A0E0B1E02C9130E011968C91119780
:107F100090E0982F8827822B932B1296FA010C0160
:107F200087BEE89511244E5F5F4FF1E0A038BF0790
:107F300051F7F601A7BEE89507B600FCFDCF97BE46
:107F4000E89526C08437B1F42ED02DD0F82E2BD052
:107F50003CD0F601EF2C8F010F5F1F4F84911BD097
:107F6000EA94F801C1F70894C11CD11CFA94CF0C13
:107F7000D11C0EC0853739F428D08EE10CD085E9AC
:107F80000AD08FE07ACF813511F488E018D01DD067
:107F900080E101D065CF982F8091C00085FFFCCF94
:107FA0009093C60008958091C00087FFFCCF809118
:107FB000C00084FD01C0A8958091C6000895E0E648
:107FC000F0E098E1908380830895EDDF803219F02E
:107FD00088E0F5DFFFCF84E1DECF1F93182FE3DFCA
:107FE0001150E9F7F2DF1F91089580E0E8DFEE27F6
:047FF000FF270994CA
:027FFE00040479
:00000001FF
